{
  "_format": "hh-sol-artifact-1",
  "contractName": "NFTVR",
  "sourceName": "contracts/NFTVR.sol",
  "abi": [
    {
      "anonymous": false,
      "inputs": [
        {
          "indexed": false,
          "internalType": "address",
          "name": "previousAdmin",
          "type": "address"
        },
        {
          "indexed": false,
          "internalType": "address",
          "name": "newAdmin",
          "type": "address"
        }
      ],
      "name": "AdminChanged",
      "type": "event"
    },
    {
      "anonymous": false,
      "inputs": [
        {
          "indexed": true,
          "internalType": "address",
          "name": "owner",
          "type": "address"
        },
        {
          "indexed": true,
          "internalType": "address",
          "name": "approved",
          "type": "address"
        },
        {
          "indexed": true,
          "internalType": "uint256",
          "name": "tokenId",
          "type": "uint256"
        }
      ],
      "name": "Approval",
      "type": "event"
    },
    {
      "anonymous": false,
      "inputs": [
        {
          "indexed": true,
          "internalType": "address",
          "name": "owner",
          "type": "address"
        },
        {
          "indexed": true,
          "internalType": "address",
          "name": "operator",
          "type": "address"
        },
        {
          "indexed": false,
          "internalType": "bool",
          "name": "approved",
          "type": "bool"
        }
      ],
      "name": "ApprovalForAll",
      "type": "event"
    },
    {
      "anonymous": false,
      "inputs": [
        {
          "indexed": true,
          "internalType": "address",
          "name": "beacon",
          "type": "address"
        }
      ],
      "name": "BeaconUpgraded",
      "type": "event"
    },
    {
      "anonymous": false,
      "inputs": [
        {
          "indexed": false,
          "internalType": "uint8",
          "name": "version",
          "type": "uint8"
        }
      ],
      "name": "Initialized",
      "type": "event"
    },
    {
      "anonymous": false,
      "inputs": [
        {
          "indexed": true,
          "internalType": "address",
          "name": "from",
          "type": "address"
        },
        {
          "indexed": true,
          "internalType": "address",
          "name": "to",
          "type": "address"
        },
        {
          "indexed": true,
          "internalType": "uint256",
          "name": "tokenId",
          "type": "uint256"
        }
      ],
      "name": "Transfer",
      "type": "event"
    },
    {
      "anonymous": false,
      "inputs": [
        {
          "indexed": true,
          "internalType": "address",
          "name": "implementation",
          "type": "address"
        }
      ],
      "name": "Upgraded",
      "type": "event"
    },
    {
      "inputs": [],
      "name": "Owner",
      "outputs": [
        {
          "internalType": "address",
          "name": "",
          "type": "address"
        }
      ],
      "stateMutability": "view",
      "type": "function"
    },
    {
      "inputs": [
        {
          "internalType": "address",
          "name": "to",
          "type": "address"
        },
        {
          "internalType": "uint256",
          "name": "tokenId",
          "type": "uint256"
        }
      ],
      "name": "approve",
      "outputs": [],
      "stateMutability": "nonpayable",
      "type": "function"
    },
    {
      "inputs": [
        {
          "internalType": "address",
          "name": "owner",
          "type": "address"
        }
      ],
      "name": "balanceOf",
      "outputs": [
        {
          "internalType": "uint256",
          "name": "",
          "type": "uint256"
        }
      ],
      "stateMutability": "view",
      "type": "function"
    },
    {
      "inputs": [
        {
          "internalType": "uint256",
          "name": "_tokenId",
          "type": "uint256"
        }
      ],
      "name": "buyNft",
      "outputs": [],
      "stateMutability": "payable",
      "type": "function"
    },
    {
      "inputs": [
        {
          "internalType": "uint256",
          "name": "tokenId",
          "type": "uint256"
        }
      ],
      "name": "getApproved",
      "outputs": [
        {
          "internalType": "address",
          "name": "",
          "type": "address"
        }
      ],
      "stateMutability": "view",
      "type": "function"
    },
    {
      "inputs": [],
      "name": "getTokendata",
      "outputs": [
        {
          "internalType": "uint256",
          "name": "",
          "type": "uint256"
        }
      ],
      "stateMutability": "view",
      "type": "function"
    },
    {
      "inputs": [],
      "name": "initialize",
      "outputs": [],
      "stateMutability": "nonpayable",
      "type": "function"
    },
    {
      "inputs": [
        {
          "internalType": "address",
          "name": "owner",
          "type": "address"
        },
        {
          "internalType": "address",
          "name": "operator",
          "type": "address"
        }
      ],
      "name": "isApprovedForAll",
      "outputs": [
        {
          "internalType": "bool",
          "name": "",
          "type": "bool"
        }
      ],
      "stateMutability": "view",
      "type": "function"
    },
    {
      "inputs": [
        {
          "internalType": "address",
          "name": "recipient",
          "type": "address"
        },
        {
          "internalType": "string",
          "name": "tokenURI",
          "type": "string"
        },
        {
          "internalType": "uint256",
          "name": "_nftPrice",
          "type": "uint256"
        }
      ],
      "name": "mintNFT",
      "outputs": [
        {
          "internalType": "uint256",
          "name": "",
          "type": "uint256"
        }
      ],
      "stateMutability": "nonpayable",
      "type": "function"
    },
    {
      "inputs": [],
      "name": "name",
      "outputs": [
        {
          "internalType": "string",
          "name": "",
          "type": "string"
        }
      ],
      "stateMutability": "view",
      "type": "function"
    },
    {
      "inputs": [
        {
          "internalType": "uint256",
          "name": "",
          "type": "uint256"
        }
      ],
      "name": "nftPrice",
      "outputs": [
        {
          "internalType": "uint256",
          "name": "",
          "type": "uint256"
        }
      ],
      "stateMutability": "view",
      "type": "function"
    },
    {
      "inputs": [
        {
          "internalType": "uint256",
          "name": "tokenId",
          "type": "uint256"
        }
      ],
      "name": "ownerOf",
      "outputs": [
        {
          "internalType": "address",
          "name": "",
          "type": "address"
        }
      ],
      "stateMutability": "view",
      "type": "function"
    },
    {
      "inputs": [],
      "name": "proxiableUUID",
      "outputs": [
        {
          "internalType": "bytes32",
          "name": "",
          "type": "bytes32"
        }
      ],
      "stateMutability": "view",
      "type": "function"
    },
    {
      "inputs": [
        {
          "internalType": "address",
          "name": "from",
          "type": "address"
        },
        {
          "internalType": "address",
          "name": "to",
          "type": "address"
        },
        {
          "internalType": "uint256",
          "name": "tokenId",
          "type": "uint256"
        }
      ],
      "name": "safeTransferFrom",
      "outputs": [],
      "stateMutability": "nonpayable",
      "type": "function"
    },
    {
      "inputs": [
        {
          "internalType": "address",
          "name": "from",
          "type": "address"
        },
        {
          "internalType": "address",
          "name": "to",
          "type": "address"
        },
        {
          "internalType": "uint256",
          "name": "tokenId",
          "type": "uint256"
        },
        {
          "internalType": "bytes",
          "name": "data",
          "type": "bytes"
        }
      ],
      "name": "safeTransferFrom",
      "outputs": [],
      "stateMutability": "nonpayable",
      "type": "function"
    },
    {
      "inputs": [
        {
          "internalType": "address",
          "name": "operator",
          "type": "address"
        },
        {
          "internalType": "bool",
          "name": "approved",
          "type": "bool"
        }
      ],
      "name": "setApprovalForAll",
      "outputs": [],
      "stateMutability": "nonpayable",
      "type": "function"
    },
    {
      "inputs": [
        {
          "internalType": "bytes4",
          "name": "interfaceId",
          "type": "bytes4"
        }
      ],
      "name": "supportsInterface",
      "outputs": [
        {
          "internalType": "bool",
          "name": "",
          "type": "bool"
        }
      ],
      "stateMutability": "view",
      "type": "function"
    },
    {
      "inputs": [],
      "name": "symbol",
      "outputs": [
        {
          "internalType": "string",
          "name": "",
          "type": "string"
        }
      ],
      "stateMutability": "view",
      "type": "function"
    },
    {
      "inputs": [
        {
          "internalType": "uint256",
          "name": "tokenId",
          "type": "uint256"
        }
      ],
      "name": "tokenURI",
      "outputs": [
        {
          "internalType": "string",
          "name": "",
          "type": "string"
        }
      ],
      "stateMutability": "view",
      "type": "function"
    },
    {
      "inputs": [
        {
          "internalType": "address",
          "name": "from",
          "type": "address"
        },
        {
          "internalType": "address",
          "name": "to",
          "type": "address"
        },
        {
          "internalType": "uint256",
          "name": "tokenId",
          "type": "uint256"
        }
      ],
      "name": "transferFrom",
      "outputs": [],
      "stateMutability": "nonpayable",
      "type": "function"
    },
    {
      "inputs": [
        {
          "internalType": "address",
          "name": "from",
          "type": "address"
        },
        {
          "internalType": "address",
          "name": "to",
          "type": "address"
        },
        {
          "internalType": "uint256",
          "name": "tokenId",
          "type": "uint256"
        }
      ],
      "name": "transferOwnership",
      "outputs": [],
      "stateMutability": "nonpayable",
      "type": "function"
    },
    {
      "inputs": [
        {
          "internalType": "uint256",
          "name": "_tokenId",
          "type": "uint256"
        },
        {
          "internalType": "uint256",
          "name": "_nftPrice",
          "type": "uint256"
        }
      ],
      "name": "updateNftPrice",
      "outputs": [],
      "stateMutability": "nonpayable",
      "type": "function"
    },
    {
      "inputs": [
        {
          "internalType": "address",
          "name": "newImplementation",
          "type": "address"
        }
      ],
      "name": "upgradeTo",
      "outputs": [],
      "stateMutability": "nonpayable",
      "type": "function"
    },
    {
      "inputs": [
        {
          "internalType": "address",
          "name": "newImplementation",
          "type": "address"
        },
        {
          "internalType": "bytes",
          "name": "data",
          "type": "bytes"
        }
      ],
      "name": "upgradeToAndCall",
      "outputs": [],
      "stateMutability": "payable",
      "type": "function"
    }
  ],
  "bytecode": "0x60a06040523060805234801561001457600080fd5b506080516124e961004c600039600081816108f801528181610938015281816109f201528181610a320152610ac501526124e96000f3fe60806040526004361061014b5760003560e01c806352d1902d116100b6578063a22cb4651161006f578063a22cb46514610396578063b4a99a4e146103b6578063b88d4fde146103d6578063c87b56dd146103f6578063e52ed82e14610416578063e985e9c51461043657600080fd5b806352d1902d146102ea5780636352211e146102ff5780636de299141461031f57806370a082311461034c5780638129fc1c1461036c57806395d89b411461038157600080fd5b806323b872dd1161010857806323b872dd1461024f578063243adbdd1461026f57806334bb5ff3146102825780633659cfe61461029757806342842e0e146102b75780634f1ef286146102d757600080fd5b806301ffc9a71461015057806306fdde0314610185578063081812fc146101a757806308598df0146101df578063095ea7b31461020d578063171c00fd1461022f575b600080fd5b34801561015c57600080fd5b5061017061016b366004611ce1565b61047f565b60405190151581526020015b60405180910390f35b34801561019157600080fd5b5061019a6104d1565b60405161017c9190611d56565b3480156101b357600080fd5b506101c76101c2366004611d69565b610563565b6040516001600160a01b03909116815260200161017c565b3480156101eb57600080fd5b506101ff6101fa366004611e2a565b61058a565b60405190815260200161017c565b34801561021957600080fd5b5061022d610228366004611e95565b610626565b005b34801561023b57600080fd5b5061022d61024a366004611ebf565b61073b565b34801561025b57600080fd5b5061022d61026a366004611ebf565b610770565b61022d61027d366004611d69565b610796565b34801561028e57600080fd5b5060ca546101ff565b3480156102a357600080fd5b5061022d6102b2366004611efb565b6108ee565b3480156102c357600080fd5b5061022d6102d2366004611ebf565b6109cd565b61022d6102e5366004611f36565b6109e8565b3480156102f657600080fd5b506101ff610ab8565b34801561030b57600080fd5b506101c761031a366004611d69565b610b6b565b34801561032b57600080fd5b506101ff61033a366004611d69565b60cb6020526000908152604090205481565b34801561035857600080fd5b506101ff610367366004611efb565b610bcb565b34801561037857600080fd5b5061022d610c51565b34801561038d57600080fd5b5061019a610dae565b3480156103a257600080fd5b5061022d6103b1366004611f84565b610dbd565b3480156103c257600080fd5b5060c9546101c7906001600160a01b031681565b3480156103e257600080fd5b5061022d6103f1366004611fc0565b610dc8565b34801561040257600080fd5b5061019a610411366004611d69565b610e00565b34801561042257600080fd5b5061022d610431366004612028565b610f10565b34801561044257600080fd5b5061017061045136600461204a565b6001600160a01b039182166000908152606a6020908152604080832093909416825291909152205460ff1690565b60006001600160e01b031982166380ac58cd60e01b14806104b057506001600160e01b03198216635b5e139f60e01b145b806104cb57506301ffc9a760e01b6001600160e01b03198316145b92915050565b6060606580546104e09061207d565b80601f016020809104026020016040519081016040528092919081815260200182805461050c9061207d565b80156105595780601f1061052e57610100808354040283529160200191610559565b820191906000526020600020905b81548152906001019060200180831161053c57829003601f168201915b5050505050905090565b600061056e82610f8f565b506000908152606960205260409020546001600160a01b031690565b60c9546000906001600160a01b031633146105c05760405162461bcd60e51b81526004016105b7906120b7565b60405180910390fd5b6105ce60cd80546001019055565b60006105d960cd5490565b90506105e58582610fee565b6105ef8185611008565b60ca818155600082815260cb602090815260408083208790559254825260cc905220805460ff1916600117905590505b9392505050565b600061063182610b6b565b9050806001600160a01b0316836001600160a01b03160361069e5760405162461bcd60e51b815260206004820152602160248201527f4552433732313a20617070726f76616c20746f2063757272656e74206f776e656044820152603960f91b60648201526084016105b7565b336001600160a01b03821614806106ba57506106ba8133610451565b61072c5760405162461bcd60e51b815260206004820152603d60248201527f4552433732313a20617070726f76652063616c6c6572206973206e6f7420746f60448201527f6b656e206f776e6572206f7220617070726f76656420666f7220616c6c00000060648201526084016105b7565b610736838361109b565b505050565b60c9546001600160a01b031633146107655760405162461bcd60e51b81526004016105b7906120b7565b610736838383611109565b61077a338261126d565b6107655760405162461bcd60e51b81526004016105b7906120e3565b60ca54600090815260cc602052604090205460ff1615156001146107ef5760405162461bcd60e51b815260206004820152601060248201526f4e4654206e6f7420666f722073616c6560801b60448201526064016105b7565b600081815260cb60205260409020548061084b5760405162461bcd60e51b815260206004820152601a60248201527f5468697320746f6b656e206973206e6f7420666f722073616c6500000000000060448201526064016105b7565b80341461088c5760405162461bcd60e51b815260206004820152600f60248201526e496e636f72726563742076616c756560881b60448201526064016105b7565b600061089783610b6b565b6040519091506001600160a01b038216903480156108fc02916000818181858888f193505050501580156108cf573d6000803e3d6000fd5b505060ca54600090815260cc60205260409020805460ff191690555050565b6001600160a01b037f00000000000000000000000000000000000000000000000000000000000000001630036109365760405162461bcd60e51b81526004016105b790612130565b7f00000000000000000000000000000000000000000000000000000000000000006001600160a01b031661097f60008051602061246d833981519152546001600160a01b031690565b6001600160a01b0316146109a55760405162461bcd60e51b81526004016105b79061217c565b6109ae816112eb565b604080516000808252602082019092526109ca91839190611315565b50565b61073683838360405180602001604052806000815250610dc8565b6001600160a01b037f0000000000000000000000000000000000000000000000000000000000000000163003610a305760405162461bcd60e51b81526004016105b790612130565b7f00000000000000000000000000000000000000000000000000000000000000006001600160a01b0316610a7960008051602061246d833981519152546001600160a01b031690565b6001600160a01b031614610a9f5760405162461bcd60e51b81526004016105b79061217c565b610aa8826112eb565b610ab482826001611315565b5050565b6000306001600160a01b037f00000000000000000000000000000000000000000000000000000000000000001614610b585760405162461bcd60e51b815260206004820152603860248201527f555550535570677261646561626c653a206d757374206e6f742062652063616c60448201527f6c6564207468726f7567682064656c656761746563616c6c000000000000000060648201526084016105b7565b5060008051602061246d83398151915290565b6000818152606760205260408120546001600160a01b0316806104cb5760405162461bcd60e51b8152602060048201526018602482015277115490cdcc8c4e881a5b9d985b1a59081d1bdad95b88125160421b60448201526064016105b7565b60006001600160a01b038216610c355760405162461bcd60e51b815260206004820152602960248201527f4552433732313a2061646472657373207a65726f206973206e6f7420612076616044820152683634b21037bbb732b960b91b60648201526084016105b7565b506001600160a01b031660009081526068602052604090205490565b600054610100900460ff1615808015610c715750600054600160ff909116105b80610c8b5750303b158015610c8b575060005460ff166001145b610cee5760405162461bcd60e51b815260206004820152602e60248201527f496e697469616c697a61626c653a20636f6e747261637420697320616c72656160448201526d191e481a5b9a5d1a585b1a5e995960921b60648201526084016105b7565b6000805460ff191660011790558015610d11576000805461ff0019166101001790555b610d546040518060400160405280600681526020016527232a16ab2960d11b81525060405180604001604052806003815260200162272b2960e91b815250611480565b60c980546001600160a01b0319163317905580156109ca576000805461ff0019169055604051600181527f7f26b83ff96e1f2b6a682f133852f6798a09c465da95921460cefb38474024989060200160405180910390a150565b6060606680546104e09061207d565b610ab43383836114b1565b610dd2338361126d565b610dee5760405162461bcd60e51b81526004016105b7906120e3565b610dfa8484848461157f565b50505050565b6060610e0b82610f8f565b60008281526097602052604081208054610e249061207d565b80601f0160208091040260200160405190810160405280929190818152602001828054610e509061207d565b8015610e9d5780601f10610e7257610100808354040283529160200191610e9d565b820191906000526020600020905b815481529060010190602001808311610e8057829003601f168201915b505050505090506000610ebb60408051602081019091526000815290565b90508051600003610ecd575092915050565b815115610eff578082604051602001610ee79291906121c8565b60405160208183030381529060405292505050919050565b610f08846115b2565b949350505050565b60ca54821115610f625760405162461bcd60e51b815260206004820152601860248201527f546f6b656e20494420646f6573206e6f7420657869737473000000000000000060448201526064016105b7565b600091825260cb602090815260408084209290925560ca54835260cc90529020805460ff19166001179055565b6000818152606760205260409020546001600160a01b03166109ca5760405162461bcd60e51b8152602060048201526018602482015277115490cdcc8c4e881a5b9d985b1a59081d1bdad95b88125160421b60448201526064016105b7565b610ab4828260405180602001604052806000815250611625565b6000828152606760205260409020546001600160a01b03166110835760405162461bcd60e51b815260206004820152602e60248201527f45524337323155524953746f726167653a2055524920736574206f66206e6f6e60448201526d32bc34b9ba32b73a103a37b5b2b760911b60648201526084016105b7565b60008281526097602052604090206107368282612245565b600081815260696020526040902080546001600160a01b0319166001600160a01b03841690811790915581906110d082610b6b565b6001600160a01b03167f8c5be1e5ebec7d5bd14f71427d1e84f3dd0314c0f7b2291e5b200ac8c7c3b92560405160405180910390a45050565b826001600160a01b031661111c82610b6b565b6001600160a01b0316146111425760405162461bcd60e51b81526004016105b790612305565b6001600160a01b0382166111a45760405162461bcd60e51b8152602060048201526024808201527f4552433732313a207472616e7366657220746f20746865207a65726f206164646044820152637265737360e01b60648201526084016105b7565b826001600160a01b03166111b782610b6b565b6001600160a01b0316146111dd5760405162461bcd60e51b81526004016105b790612305565b600081815260696020908152604080832080546001600160a01b03199081169091556001600160a01b0387811680865260688552838620805460001901905590871680865283862080546001019055868652606790945282852080549092168417909155905184937fddf252ad1be2c89b69c2b068fc378daa952ba7f163c4a11628f55a4df523b3ef91a4505050565b60008061127983610b6b565b9050806001600160a01b0316846001600160a01b031614806112c057506001600160a01b038082166000908152606a602090815260408083209388168352929052205460ff165b80610f085750836001600160a01b03166112d984610563565b6001600160a01b031614949350505050565b60c9546001600160a01b031633146109ca5760405162461bcd60e51b81526004016105b7906120b7565b7f4910fdfa16fed3260ed0e7147f7cc6da11a60208b5b9406d12a635614ffd91435460ff16156113485761073683611658565b826001600160a01b03166352d1902d6040518163ffffffff1660e01b8152600401602060405180830381865afa9250505080156113a2575060408051601f3d908101601f1916820190925261139f9181019061234a565b60015b6114055760405162461bcd60e51b815260206004820152602e60248201527f45524331393637557067726164653a206e657720696d706c656d656e7461746960448201526d6f6e206973206e6f74205555505360901b60648201526084016105b7565b60008051602061246d83398151915281146114745760405162461bcd60e51b815260206004820152602960248201527f45524331393637557067726164653a20756e737570706f727465642070726f786044820152681a58589b195555525160ba1b60648201526084016105b7565b506107368383836116f4565b600054610100900460ff166114a75760405162461bcd60e51b81526004016105b790612363565b610ab48282611719565b816001600160a01b0316836001600160a01b0316036115125760405162461bcd60e51b815260206004820152601960248201527f4552433732313a20617070726f766520746f2063616c6c65720000000000000060448201526064016105b7565b6001600160a01b038381166000818152606a6020908152604080832094871680845294825291829020805460ff191686151590811790915591519182527f17307eab39ab6107e8899845ad3d59bd9653f200f220920489ca2b5937696c31910160405180910390a3505050565b61158a848484611109565b61159684848484611759565b610dfa5760405162461bcd60e51b81526004016105b7906123ae565b60606115bd82610f8f565b60006115d460408051602081019091526000815290565b905060008151116115f4576040518060200160405280600081525061061f565b806115fe8461185a565b60405160200161160f9291906121c8565b6040516020818303038152906040529392505050565b61162f83836118ed565b61163c6000848484611759565b6107365760405162461bcd60e51b81526004016105b7906123ae565b6001600160a01b0381163b6116c55760405162461bcd60e51b815260206004820152602d60248201527f455243313936373a206e657720696d706c656d656e746174696f6e206973206e60448201526c1bdd08184818dbdb9d1c9858dd609a1b60648201526084016105b7565b60008051602061246d83398151915280546001600160a01b0319166001600160a01b0392909216919091179055565b6116fd83611a78565b60008251118061170a5750805b1561073657610dfa8383611ab8565b600054610100900460ff166117405760405162461bcd60e51b81526004016105b790612363565b606561174c8382612245565b5060666107368282612245565b60006001600160a01b0384163b1561184f57604051630a85bd0160e11b81526001600160a01b0385169063150b7a029061179d903390899088908890600401612400565b6020604051808303816000875af19250505080156117d8575060408051601f3d908101601f191682019092526117d591810190612433565b60015b611835573d808015611806576040519150601f19603f3d011682016040523d82523d6000602084013e61180b565b606091505b50805160000361182d5760405162461bcd60e51b81526004016105b7906123ae565b805181602001fd5b6001600160e01b031916630a85bd0160e11b149050610f08565b506001949350505050565b6060600061186783611add565b600101905060008167ffffffffffffffff81111561188757611887611d9e565b6040519080825280601f01601f1916602001820160405280156118b1576020820181803683370190505b5090508181016020015b600019016f181899199a1a9b1b9c1cb0b131b232b360811b600a86061a8153600a85049450846118bb57509392505050565b6001600160a01b0382166119435760405162461bcd60e51b815260206004820181905260248201527f4552433732313a206d696e7420746f20746865207a65726f206164647265737360448201526064016105b7565b6000818152606760205260409020546001600160a01b0316156119a85760405162461bcd60e51b815260206004820152601c60248201527f4552433732313a20746f6b656e20616c7265616479206d696e7465640000000060448201526064016105b7565b6000818152606760205260409020546001600160a01b031615611a0d5760405162461bcd60e51b815260206004820152601c60248201527f4552433732313a20746f6b656e20616c7265616479206d696e7465640000000060448201526064016105b7565b6001600160a01b038216600081815260686020908152604080832080546001019055848352606790915280822080546001600160a01b0319168417905551839291907fddf252ad1be2c89b69c2b068fc378daa952ba7f163c4a11628f55a4df523b3ef908290a45050565b611a8181611658565b6040516001600160a01b038216907fbc7cd75a20ee27fd9adebab32041f755214dbc6bffa90cc0225b39da2e5c2d3b90600090a250565b606061061f838360405180606001604052806027815260200161248d60279139611bb5565b60008072184f03e93ff9f4daa797ed6e38ed64bf6a1f0160401b8310611b1c5772184f03e93ff9f4daa797ed6e38ed64bf6a1f0160401b830492506040015b6d04ee2d6d415b85acef81000000008310611b48576d04ee2d6d415b85acef8100000000830492506020015b662386f26fc100008310611b6657662386f26fc10000830492506010015b6305f5e1008310611b7e576305f5e100830492506008015b6127108310611b9257612710830492506004015b60648310611ba4576064830492506002015b600a83106104cb5760010192915050565b60606001600160a01b0384163b611c1d5760405162461bcd60e51b815260206004820152602660248201527f416464726573733a2064656c65676174652063616c6c20746f206e6f6e2d636f6044820152651b9d1c9858dd60d21b60648201526084016105b7565b600080856001600160a01b031685604051611c389190612450565b600060405180830381855af49150503d8060008114611c73576040519150601f19603f3d011682016040523d82523d6000602084013e611c78565b606091505b5091509150611c88828286611c92565b9695505050505050565b60608315611ca157508161061f565b825115611cb15782518084602001fd5b8160405162461bcd60e51b81526004016105b79190611d56565b6001600160e01b0319811681146109ca57600080fd5b600060208284031215611cf357600080fd5b813561061f81611ccb565b60005b83811015611d19578181015183820152602001611d01565b83811115610dfa5750506000910152565b60008151808452611d42816020860160208601611cfe565b601f01601f19169290920160200192915050565b60208152600061061f6020830184611d2a565b600060208284031215611d7b57600080fd5b5035919050565b80356001600160a01b0381168114611d9957600080fd5b919050565b634e487b7160e01b600052604160045260246000fd5b600067ffffffffffffffff80841115611dcf57611dcf611d9e565b604051601f8501601f19908116603f01168101908282118183101715611df757611df7611d9e565b81604052809350858152868686011115611e1057600080fd5b858560208301376000602087830101525050509392505050565b600080600060608486031215611e3f57600080fd5b611e4884611d82565b9250602084013567ffffffffffffffff811115611e6457600080fd5b8401601f81018613611e7557600080fd5b611e8486823560208401611db4565b925050604084013590509250925092565b60008060408385031215611ea857600080fd5b611eb183611d82565b946020939093013593505050565b600080600060608486031215611ed457600080fd5b611edd84611d82565b9250611eeb60208501611d82565b9150604084013590509250925092565b600060208284031215611f0d57600080fd5b61061f82611d82565b600082601f830112611f2757600080fd5b61061f83833560208501611db4565b60008060408385031215611f4957600080fd5b611f5283611d82565b9150602083013567ffffffffffffffff811115611f6e57600080fd5b611f7a85828601611f16565b9150509250929050565b60008060408385031215611f9757600080fd5b611fa083611d82565b915060208301358015158114611fb557600080fd5b809150509250929050565b60008060008060808587031215611fd657600080fd5b611fdf85611d82565b9350611fed60208601611d82565b925060408501359150606085013567ffffffffffffffff81111561201057600080fd5b61201c87828801611f16565b91505092959194509250565b6000806040838503121561203b57600080fd5b50508035926020909101359150565b6000806040838503121561205d57600080fd5b61206683611d82565b915061207460208401611d82565b90509250929050565b600181811c9082168061209157607f821691505b6020821081036120b157634e487b7160e01b600052602260045260246000fd5b50919050565b6020808252601290820152711bdb9b1e481bdddb995c88185b1b1bddd95960721b604082015260600190565b6020808252602d908201527f4552433732313a2063616c6c6572206973206e6f7420746f6b656e206f776e6560408201526c1c881bdc88185c1c1c9bdd9959609a1b606082015260800190565b6020808252602c908201527f46756e6374696f6e206d7573742062652063616c6c6564207468726f7567682060408201526b19195b1959d85d1958d85b1b60a21b606082015260800190565b6020808252602c908201527f46756e6374696f6e206d7573742062652063616c6c6564207468726f7567682060408201526b6163746976652070726f787960a01b606082015260800190565b600083516121da818460208801611cfe565b8351908301906121ee818360208801611cfe565b01949350505050565b601f82111561073657600081815260208120601f850160051c8101602086101561221e5750805b601f850160051c820191505b8181101561223d5782815560010161222a565b505050505050565b815167ffffffffffffffff81111561225f5761225f611d9e565b6122738161226d845461207d565b846121f7565b602080601f8311600181146122a857600084156122905750858301515b600019600386901b1c1916600185901b17855561223d565b600085815260208120601f198616915b828110156122d7578886015182559484019460019091019084016122b8565b50858210156122f55787850151600019600388901b60f8161c191681555b5050505050600190811b01905550565b60208082526025908201527f4552433732313a207472616e736665722066726f6d20696e636f72726563742060408201526437bbb732b960d91b606082015260800190565b60006020828403121561235c57600080fd5b5051919050565b6020808252602b908201527f496e697469616c697a61626c653a20636f6e7472616374206973206e6f74206960408201526a6e697469616c697a696e6760a81b606082015260800190565b60208082526032908201527f4552433732313a207472616e7366657220746f206e6f6e20455243373231526560408201527131b2b4bb32b91034b6b83632b6b2b73a32b960711b606082015260800190565b6001600160a01b0385811682528416602082015260408101839052608060608201819052600090611c8890830184611d2a565b60006020828403121561244557600080fd5b815161061f81611ccb565b60008251612462818460208701611cfe565b919091019291505056fe360894a13ba1a3210667c828492db98dca3e2076cc3735a920a3ca505d382bbc416464726573733a206c6f772d6c6576656c2064656c65676174652063616c6c206661696c6564a264697066735822122023669452f62fa9b5567f37908d4f600d3f41f425dce3defa5793451250db345564736f6c634300080f0033",
  "linkReferences": {},
  "deployedLinkReferences": {}
}